{
  "contractName": "MedicalCase",
  "abi": [
    {
      "constant": false,
      "inputs": [
        {
          "name": "useraddress",
          "type": "address"
        },
        {
          "name": "userkey",
          "type": "string"
        }
      ],
      "name": "setKey",
      "outputs": [],
      "payable": false,
      "stateMutability": "nonpayable",
      "type": "function"
    },
    {
      "constant": true,
      "inputs": [
        {
          "name": "useraddress",
          "type": "address"
        }
      ],
      "name": "getKey",
      "outputs": [
        {
          "name": "key",
          "type": "string"
        }
      ],
      "payable": false,
      "stateMutability": "view",
      "type": "function"
    }
  ],
  "bytecode": "0x608060405234801561001057600080fd5b506103dc806100206000396000f30060806040526004361061004b5763ffffffff7c01000000000000000000000000000000000000000000000000000000006000350416631b02b1c0811461005057806393790f44146100b9575b600080fd5b34801561005c57600080fd5b5060408051602060046024803582810135601f81018590048502860185019096528585526100b7958335600160a060020a031695369560449491939091019190819084018382808284375094975061014f9650505050505050565b005b3480156100c557600080fd5b506100da600160a060020a03600435166101e5565b6040805160208082528351818301528351919283929083019185019080838360005b838110156101145781810151838201526020016100fc565b50505050905090810190601f1680156101415780820380516001836020036101000a031916815260200191505b509250505060405180910390f35b610158826102b7565b15156001146101e157600160a060020a038216600090815260208181526040909120825161018892840190610315565b506001805480820182556000919091527fb10e2d527612073b26eecdfd717e6a320cf44b4afac2b0732d9fcbe2b7fa0cf601805473ffffffffffffffffffffffffffffffffffffffff1916600160a060020a0384161790555b5050565b60606101f0826102b7565b1515600114156102a157600160a060020a0382166000908152602081815260409182902080548351601f6002600019610100600186161502019093169290920491820184900484028101840190945280845290918301828280156102955780601f1061026a57610100808354040283529160200191610295565b820191906000526020600020905b81548152906001019060200180831161027857829003601f168201915b505050505090506102b2565b506040805160208101909152600081525b919050565b6000805b60015481101561030a5782600160a060020a03166001828154811015156102de57fe5b600091825260209091200154600160a060020a03161415610302576001915061030f565b6001016102bb565b600091505b50919050565b828054600181600116156101000203166002900490600052602060002090601f016020900481019282601f1061035657805160ff1916838001178555610383565b82800160010185558215610383579182015b82811115610383578251825591602001919060010190610368565b5061038f929150610393565b5090565b6103ad91905b8082111561038f5760008155600101610399565b905600a165627a7a72305820c60ace0d0edfdf2970f5c109cff9ab57fc2314790facf50e6682c0a0aa242c0c0029",
  "source": "pragma solidity ^0.4.15;\r\ncontract MedicalCase{\r\n    mapping(address => string) private keys;\r\n    address[] private userAddresses;\r\n    \r\n    function addressExist(address useraddress) private returns (bool){\r\n        for (uint i=0; i<userAddresses.length; i++) {\r\n            if (userAddresses[i] == useraddress){\r\n                return true;\r\n            }\r\n        }\r\n        return false;\r\n    }\r\n    \r\n    function setKey(address useraddress, string userkey) public {\r\n        if (addressExist(useraddress) != true){\r\n            keys[useraddress] =userkey;\r\n            userAddresses.push(useraddress);\r\n        }\r\n    }\r\n    \r\n    function getKey(address useraddress) public constant returns (string key){\r\n        if (addressExist(useraddress) == true){\r\n            return keys[useraddress];\r\n        }\r\n        return '';\r\n        \r\n    }\r\n}",
  "sourcePath": "H:\\CourseStudy\\Semester3\\DevelopSecureSystem\\Project\\dss_project\\block-medical-case\\src\\contract_design\\contracts\\MedicalCase.sol",
  "compiler": {
    "name": "solc",
    "version": "0.4.24+commit.e67f0147.Emscripten.clang"
  },
  "schemaVersion": "2.0.1",
  "updatedAt": "2018-12-08T09:43:17.415Z"
}