{
  "contractName": "MedicalCase",
  "abi": [
    {
      "constant": false,
      "inputs": [
        {
          "name": "useraddress",
          "type": "address"
        },
        {
          "name": "userkey",
          "type": "string"
        }
      ],
      "name": "setKey",
      "outputs": [
        {
          "name": "",
          "type": "bool"
        }
      ],
      "payable": false,
      "stateMutability": "nonpayable",
      "type": "function"
    },
    {
      "constant": false,
      "inputs": [
        {
          "name": "useraddress",
          "type": "address"
        }
      ],
      "name": "getKey",
      "outputs": [
        {
          "name": "",
          "type": "string"
        }
      ],
      "payable": false,
      "stateMutability": "nonpayable",
      "type": "function"
    }
  ],
  "bytecode": "0x608060405234801561001057600080fd5b506103fb806100206000396000f30060806040526004361061004b5763ffffffff7c01000000000000000000000000000000000000000000000000000000006000350416631b02b1c0811461005057806393790f44146100cb575b600080fd5b34801561005c57600080fd5b5060408051602060046024803582810135601f81018590048502860185019096528585526100b7958335600160a060020a03169536956044949193909101919081908401838280828437509497506101619650505050505050565b604080519115158252519081900360200190f35b3480156100d757600080fd5b506100ec600160a060020a0360043516610204565b6040805160208082528351818301528351919283929083019185019080838360005b8381101561012657818101518382015260200161010e565b50505050905090810190601f1680156101535780820380516001836020036101000a031916815260200191505b509250505060405180910390f35b600061016c836102d6565b15156001141561017e575060006101fe565b600160a060020a03831660009081526020818152604090912083516101a592850190610334565b505060018054808201825560008290527fb10e2d527612073b26eecdfd717e6a320cf44b4afac2b0732d9fcbe2b7fa0cf601805473ffffffffffffffffffffffffffffffffffffffff1916600160a060020a0385161790555b92915050565b606061020f826102d6565b1515600114156102c057600160a060020a0382166000908152602081815260409182902080548351601f6002600019610100600186161502019093169290920491820184900484028101840190945280845290918301828280156102b45780601f10610289576101008083540402835291602001916102b4565b820191906000526020600020905b81548152906001019060200180831161029757829003601f168201915b505050505090506102d1565b506040805160208101909152600081525b919050565b6000805b6001548110156103295782600160a060020a03166001828154811015156102fd57fe5b600091825260209091200154600160a060020a03161415610321576001915061032e565b6001016102da565b600091505b50919050565b828054600181600116156101000203166002900490600052602060002090601f016020900481019282601f1061037557805160ff19168380011785556103a2565b828001600101855582156103a2579182015b828111156103a2578251825591602001919060010190610387565b506103ae9291506103b2565b5090565b6103cc91905b808211156103ae57600081556001016103b8565b905600a165627a7a72305820b0d40d1fd4414ea385389d8418eaf9c9a28a3eb96067b38dd9e2fdccd8f60a6a0029",
  "source": "pragma solidity >=0.4.22 <0.6.0;\r\ncontract MedicalCase{\r\n    mapping(address => string) private keys;\r\n    address[] private userAddresses;\r\n    \r\n    function addressExist(address useraddress) private returns (bool){\r\n        for (uint i=0; i<userAddresses.length; i++) {\r\n            if (userAddresses[i] == useraddress){\r\n                return true;\r\n            }\r\n        }\r\n        return false;\r\n    }\r\n    \r\n    function setKey(address useraddress,string memory userkey) public returns (bool){\r\n        if (addressExist(useraddress) == true){\r\n            return false;   \r\n        }\r\n        keys[useraddress] =userkey;\r\n        \r\n        userAddresses.push(useraddress);\r\n        return true;\r\n    }\r\n    \r\n    function getKey(address useraddress) public returns (string memory){\r\n        if (addressExist(useraddress) == true){\r\n            return keys[useraddress];\r\n        }\r\n        return '';  //#Not sure what you want to return if key not exists, you can change as you want\r\n        \r\n    }\r\n}",
  "sourcePath": "H:\\CourseStudy\\Semester3\\DevelopSecureSystem\\Project\\dss_project\\block-medical-case\\src\\contract_design\\contracts\\MedicalCase.sol",
  "compiler": {
    "name": "solc",
    "version": "0.4.24+commit.e67f0147.Emscripten.clang"
  },
  "schemaVersion": "2.0.1",
  "updatedAt": "2018-12-08T08:12:22.855Z"
}